{
  "address": "0xFD2d987Cb5ef7dC5DBD86955fd4f0482c5B5a7Fc",
  "abi": [
    {
      "inputs": [
        {
          "internalType": "contract ENS",
          "name": "_ens",
          "type": "address"
        },
        {
          "internalType": "contract IBaseRegistrar",
          "name": "_registrar",
          "type": "address"
        },
        {
          "internalType": "contract IMetadataService",
          "name": "_metadataService",
          "type": "address"
        }
      ],
      "stateMutability": "nonpayable",
      "type": "constructor"
    },
    {
      "inputs": [],
      "name": "CannotUpgrade",
      "type": "error"
    },
    {
      "inputs": [],
      "name": "IncompatibleParent",
      "type": "error"
    },
    {
      "inputs": [],
      "name": "IncorrectTokenType",
      "type": "error"
    },
    {
      "inputs": [
        {
          "internalType": "bytes32",
          "name": "labelHash",
          "type": "bytes32"
        },
        {
          "internalType": "bytes32",
          "name": "expectedLabelhash",
          "type": "bytes32"
        }
      ],
      "name": "LabelMismatch",
      "type": "error"
    },
    {
      "inputs": [
        {
          "internalType": "string",
          "name": "label",
          "type": "string"
        }
      ],
      "name": "LabelTooLong",
      "type": "error"
    },
    {
      "inputs": [],
      "name": "LabelTooShort",
      "type": "error"
    },
    {
      "inputs": [
        {
          "internalType": "bytes32",
          "name": "node",
          "type": "bytes32"
        }
      ],
      "name": "OperationProhibited",
      "type": "error"
    },
    {
      "inputs": [
        {
          "internalType": "bytes32",
          "name": "node",
          "type": "bytes32"
        },
        {
          "internalType": "address",
          "name": "addr",
          "type": "address"
        }
      ],
      "name": "Unauthorised",
      "type": "error"
    },
    {
      "inputs": [],
      "name": "UnwrapForbidden",
      "type": "error"
    },
    {
      "anonymous": false,
      "inputs": [
        {
          "indexed": true,
          "internalType": "address",
          "name": "account",
          "type": "address"
        },
        {
          "indexed": true,
          "internalType": "address",
          "name": "operator",
          "type": "address"
        },
        {
          "indexed": false,
          "internalType": "bool",
          "name": "approved",
          "type": "bool"
        }
      ],
      "name": "ApprovalForAll",
      "type": "event"
    },
    {
      "anonymous": false,
      "inputs": [
        {
          "indexed": true,
          "internalType": "address",
          "name": "controller",
          "type": "address"
        },
        {
          "indexed": false,
          "internalType": "bool",
          "name": "active",
          "type": "bool"
        }
      ],
      "name": "ControllerChanged",
      "type": "event"
    },
    {
      "anonymous": false,
      "inputs": [
        {
          "indexed": true,
          "internalType": "bytes32",
          "name": "node",
          "type": "bytes32"
        },
        {
          "indexed": false,
          "internalType": "uint32",
          "name": "fuses",
          "type": "uint32"
        },
        {
          "indexed": false,
          "internalType": "uint64",
          "name": "expiry",
          "type": "uint64"
        }
      ],
      "name": "FusesSet",
      "type": "event"
    },
    {
      "anonymous": false,
      "inputs": [
        {
          "indexed": true,
          "internalType": "bytes32",
          "name": "node",
          "type": "bytes32"
        },
        {
          "indexed": false,
          "internalType": "address",
          "name": "owner",
          "type": "address"
        }
      ],
      "name": "NameUnwrapped",
      "type": "event"
    },
    {
      "anonymous": false,
      "inputs": [
        {
          "indexed": true,
          "internalType": "bytes32",
          "name": "node",
          "type": "bytes32"
        },
        {
          "indexed": false,
          "internalType": "bytes",
          "name": "name",
          "type": "bytes"
        },
        {
          "indexed": false,
          "internalType": "address",
          "name": "owner",
          "type": "address"
        },
        {
          "indexed": false,
          "internalType": "uint32",
          "name": "fuses",
          "type": "uint32"
        },
        {
          "indexed": false,
          "internalType": "uint64",
          "name": "expiry",
          "type": "uint64"
        }
      ],
      "name": "NameWrapped",
      "type": "event"
    },
    {
      "anonymous": false,
      "inputs": [
        {
          "indexed": true,
          "internalType": "address",
          "name": "previousOwner",
          "type": "address"
        },
        {
          "indexed": true,
          "internalType": "address",
          "name": "newOwner",
          "type": "address"
        }
      ],
      "name": "OwnershipTransferred",
      "type": "event"
    },
    {
      "anonymous": false,
      "inputs": [
        {
          "indexed": true,
          "internalType": "address",
          "name": "operator",
          "type": "address"
        },
        {
          "indexed": true,
          "internalType": "address",
          "name": "from",
          "type": "address"
        },
        {
          "indexed": true,
          "internalType": "address",
          "name": "to",
          "type": "address"
        },
        {
          "indexed": false,
          "internalType": "uint256[]",
          "name": "ids",
          "type": "uint256[]"
        },
        {
          "indexed": false,
          "internalType": "uint256[]",
          "name": "values",
          "type": "uint256[]"
        }
      ],
      "name": "TransferBatch",
      "type": "event"
    },
    {
      "anonymous": false,
      "inputs": [
        {
          "indexed": true,
          "internalType": "address",
          "name": "operator",
          "type": "address"
        },
        {
          "indexed": true,
          "internalType": "address",
          "name": "from",
          "type": "address"
        },
        {
          "indexed": true,
          "internalType": "address",
          "name": "to",
          "type": "address"
        },
        {
          "indexed": false,
          "internalType": "uint256",
          "name": "id",
          "type": "uint256"
        },
        {
          "indexed": false,
          "internalType": "uint256",
          "name": "value",
          "type": "uint256"
        }
      ],
      "name": "TransferSingle",
      "type": "event"
    },
    {
      "anonymous": false,
      "inputs": [
        {
          "indexed": false,
          "internalType": "string",
          "name": "value",
          "type": "string"
        },
        {
          "indexed": true,
          "internalType": "uint256",
          "name": "id",
          "type": "uint256"
        }
      ],
      "name": "URI",
      "type": "event"
    },
    {
      "inputs": [
        {
          "internalType": "uint256",
          "name": "",
          "type": "uint256"
        }
      ],
      "name": "_tokens",
      "outputs": [
        {
          "internalType": "uint256",
          "name": "",
          "type": "uint256"
        }
      ],
      "stateMutability": "view",
      "type": "function"
    },
    {
      "inputs": [
        {
          "internalType": "bytes32",
          "name": "node",
          "type": "bytes32"
        },
        {
          "internalType": "uint32",
          "name": "fuseMask",
          "type": "uint32"
        }
      ],
      "name": "allFusesBurned",
      "outputs": [
        {
          "internalType": "bool",
          "name": "",
          "type": "bool"
        }
      ],
      "stateMutability": "view",
      "type": "function"
    },
    {
      "inputs": [
        {
          "internalType": "address",
          "name": "account",
          "type": "address"
        },
        {
          "internalType": "uint256",
          "name": "id",
          "type": "uint256"
        }
      ],
      "name": "balanceOf",
      "outputs": [
        {
          "internalType": "uint256",
          "name": "",
          "type": "uint256"
        }
      ],
      "stateMutability": "view",
      "type": "function"
    },
    {
      "inputs": [
        {
          "internalType": "address[]",
          "name": "accounts",
          "type": "address[]"
        },
        {
          "internalType": "uint256[]",
          "name": "ids",
          "type": "uint256[]"
        }
      ],
      "name": "balanceOfBatch",
      "outputs": [
        {
          "internalType": "uint256[]",
          "name": "",
          "type": "uint256[]"
        }
      ],
      "stateMutability": "view",
      "type": "function"
    },
    {
      "inputs": [
        {
          "internalType": "address",
          "name": "",
          "type": "address"
        }
      ],
      "name": "controllers",
      "outputs": [
        {
          "internalType": "bool",
          "name": "",
          "type": "bool"
        }
      ],
      "stateMutability": "view",
      "type": "function"
    },
    {
      "inputs": [],
      "name": "ens",
      "outputs": [
        {
          "internalType": "contract ENS",
          "name": "",
          "type": "address"
        }
      ],
      "stateMutability": "view",
      "type": "function"
    },
    {
      "inputs": [
        {
          "internalType": "uint256",
          "name": "tokenId",
          "type": "uint256"
        }
      ],
      "name": "getData",
      "outputs": [
        {
          "internalType": "address",
          "name": "owner",
          "type": "address"
        },
        {
          "internalType": "uint32",
          "name": "fuses",
          "type": "uint32"
        },
        {
          "internalType": "uint64",
          "name": "expiry",
          "type": "uint64"
        }
      ],
      "stateMutability": "view",
      "type": "function"
    },
    {
      "inputs": [
        {
          "internalType": "address",
          "name": "account",
          "type": "address"
        },
        {
          "internalType": "address",
          "name": "operator",
          "type": "address"
        }
      ],
      "name": "isApprovedForAll",
      "outputs": [
        {
          "internalType": "bool",
          "name": "",
          "type": "bool"
        }
      ],
      "stateMutability": "view",
      "type": "function"
    },
    {
      "inputs": [
        {
          "internalType": "bytes32",
          "name": "node",
          "type": "bytes32"
        },
        {
          "internalType": "address",
          "name": "addr",
          "type": "address"
        }
      ],
      "name": "isTokenOwnerOrApproved",
      "outputs": [
        {
          "internalType": "bool",
          "name": "",
          "type": "bool"
        }
      ],
      "stateMutability": "view",
      "type": "function"
    },
    {
      "inputs": [
        {
          "internalType": "bytes32",
          "name": "node",
          "type": "bytes32"
        }
      ],
      "name": "isWrapped",
      "outputs": [
        {
          "internalType": "bool",
          "name": "",
          "type": "bool"
        }
      ],
      "stateMutability": "view",
      "type": "function"
    },
    {
      "inputs": [],
      "name": "metadataService",
      "outputs": [
        {
          "internalType": "contract IMetadataService",
          "name": "",
          "type": "address"
        }
      ],
      "stateMutability": "view",
      "type": "function"
    },
    {
      "inputs": [
        {
          "internalType": "bytes32",
          "name": "",
          "type": "bytes32"
        }
      ],
      "name": "names",
      "outputs": [
        {
          "internalType": "bytes",
          "name": "",
          "type": "bytes"
        }
      ],
      "stateMutability": "view",
      "type": "function"
    },
    {
      "inputs": [
        {
          "internalType": "address",
          "name": "to",
          "type": "address"
        },
        {
          "internalType": "address",
          "name": "",
          "type": "address"
        },
        {
          "internalType": "uint256",
          "name": "tokenId",
          "type": "uint256"
        },
        {
          "internalType": "bytes",
          "name": "data",
          "type": "bytes"
        }
      ],
      "name": "onERC721Received",
      "outputs": [
        {
          "internalType": "bytes4",
          "name": "",
          "type": "bytes4"
        }
      ],
      "stateMutability": "nonpayable",
      "type": "function"
    },
    {
      "inputs": [],
      "name": "owner",
      "outputs": [
        {
          "internalType": "address",
          "name": "",
          "type": "address"
        }
      ],
      "stateMutability": "view",
      "type": "function"
    },
    {
      "inputs": [
        {
          "internalType": "uint256",
          "name": "id",
          "type": "uint256"
        }
      ],
      "name": "ownerOf",
      "outputs": [
        {
          "internalType": "address",
          "name": "owner",
          "type": "address"
        }
      ],
      "stateMutability": "view",
      "type": "function"
    },
    {
      "inputs": [
        {
          "internalType": "address",
          "name": "_token",
          "type": "address"
        },
        {
          "internalType": "address",
          "name": "_to",
          "type": "address"
        },
        {
          "internalType": "uint256",
          "name": "_amount",
          "type": "uint256"
        }
      ],
      "name": "recoverFunds",
      "outputs": [],
      "stateMutability": "nonpayable",
      "type": "function"
    },
    {
      "inputs": [
        {
          "internalType": "string",
          "name": "label",
          "type": "string"
        },
        {
          "internalType": "address",
          "name": "wrappedOwner",
          "type": "address"
        },
        {
          "internalType": "uint256",
          "name": "duration",
          "type": "uint256"
        },
        {
          "internalType": "address",
          "name": "resolver",
          "type": "address"
        },
        {
          "internalType": "uint32",
          "name": "fuses",
          "type": "uint32"
        },
        {
          "internalType": "uint64",
          "name": "expiry",
          "type": "uint64"
        }
      ],
      "name": "registerAndWrapETH2LD",
      "outputs": [
        {
          "internalType": "uint256",
          "name": "registrarExpiry",
          "type": "uint256"
        }
      ],
      "stateMutability": "nonpayable",
      "type": "function"
    },
    {
      "inputs": [],
      "name": "registrar",
      "outputs": [
        {
          "internalType": "contract IBaseRegistrar",
          "name": "",
          "type": "address"
        }
      ],
      "stateMutability": "view",
      "type": "function"
    },
    {
      "inputs": [
        {
          "internalType": "uint256",
          "name": "tokenId",
          "type": "uint256"
        },
        {
          "internalType": "uint256",
          "name": "duration",
          "type": "uint256"
        },
        {
          "internalType": "uint32",
          "name": "fuses",
          "type": "uint32"
        },
        {
          "internalType": "uint64",
          "name": "expiry",
          "type": "uint64"
        }
      ],
      "name": "renew",
      "outputs": [
        {
          "internalType": "uint256",
          "name": "expires",
          "type": "uint256"
        }
      ],
      "stateMutability": "nonpayable",
      "type": "function"
    },
    {
      "inputs": [],
      "name": "renounceOwnership",
      "outputs": [],
      "stateMutability": "nonpayable",
      "type": "function"
    },
    {
      "inputs": [
        {
          "internalType": "address",
          "name": "from",
          "type": "address"
        },
        {
          "internalType": "address",
          "name": "to",
          "type": "address"
        },
        {
          "internalType": "uint256[]",
          "name": "ids",
          "type": "uint256[]"
        },
        {
          "internalType": "uint256[]",
          "name": "amounts",
          "type": "uint256[]"
        },
        {
          "internalType": "bytes",
          "name": "data",
          "type": "bytes"
        }
      ],
      "name": "safeBatchTransferFrom",
      "outputs": [],
      "stateMutability": "nonpayable",
      "type": "function"
    },
    {
      "inputs": [
        {
          "internalType": "address",
          "name": "from",
          "type": "address"
        },
        {
          "internalType": "address",
          "name": "to",
          "type": "address"
        },
        {
          "internalType": "uint256",
          "name": "id",
          "type": "uint256"
        },
        {
          "internalType": "uint256",
          "name": "amount",
          "type": "uint256"
        },
        {
          "internalType": "bytes",
          "name": "data",
          "type": "bytes"
        }
      ],
      "name": "safeTransferFrom",
      "outputs": [],
      "stateMutability": "nonpayable",
      "type": "function"
    },
    {
      "inputs": [
        {
          "internalType": "address",
          "name": "operator",
          "type": "address"
        },
        {
          "internalType": "bool",
          "name": "approved",
          "type": "bool"
        }
      ],
      "name": "setApprovalForAll",
      "outputs": [],
      "stateMutability": "nonpayable",
      "type": "function"
    },
    {
      "inputs": [
        {
          "internalType": "bytes32",
          "name": "parentNode",
          "type": "bytes32"
        },
        {
          "internalType": "bytes32",
          "name": "labelhash",
          "type": "bytes32"
        },
        {
          "internalType": "uint32",
          "name": "fuses",
          "type": "uint32"
        },
        {
          "internalType": "uint64",
          "name": "expiry",
          "type": "uint64"
        }
      ],
      "name": "setChildFuses",
      "outputs": [],
      "stateMutability": "nonpayable",
      "type": "function"
    },
    {
      "inputs": [
        {
          "internalType": "address",
          "name": "controller",
          "type": "address"
        },
        {
          "internalType": "bool",
          "name": "active",
          "type": "bool"
        }
      ],
      "name": "setController",
      "outputs": [],
      "stateMutability": "nonpayable",
      "type": "function"
    },
    {
      "inputs": [
        {
          "internalType": "bytes32",
          "name": "node",
          "type": "bytes32"
        },
        {
          "internalType": "uint32",
          "name": "fuses",
          "type": "uint32"
        }
      ],
      "name": "setFuses",
      "outputs": [
        {
          "internalType": "uint32",
          "name": "",
          "type": "uint32"
        }
      ],
      "stateMutability": "nonpayable",
      "type": "function"
    },
    {
      "inputs": [
        {
          "internalType": "contract IMetadataService",
          "name": "_metadataService",
          "type": "address"
        }
      ],
      "name": "setMetadataService",
      "outputs": [],
      "stateMutability": "nonpayable",
      "type": "function"
    },
    {
      "inputs": [
        {
          "internalType": "bytes32",
          "name": "node",
          "type": "bytes32"
        },
        {
          "internalType": "address",
          "name": "owner",
          "type": "address"
        },
        {
          "internalType": "address",
          "name": "resolver",
          "type": "address"
        },
        {
          "internalType": "uint64",
          "name": "ttl",
          "type": "uint64"
        }
      ],
      "name": "setRecord",
      "outputs": [],
      "stateMutability": "nonpayable",
      "type": "function"
    },
    {
      "inputs": [
        {
          "internalType": "bytes32",
          "name": "node",
          "type": "bytes32"
        },
        {
          "internalType": "address",
          "name": "resolver",
          "type": "address"
        }
      ],
      "name": "setResolver",
      "outputs": [],
      "stateMutability": "nonpayable",
      "type": "function"
    },
    {
      "inputs": [
        {
          "internalType": "bytes32",
          "name": "parentNode",
          "type": "bytes32"
        },
        {
          "internalType": "string",
          "name": "label",
          "type": "string"
        },
        {
          "internalType": "address",
          "name": "owner",
          "type": "address"
        },
        {
          "internalType": "uint32",
          "name": "fuses",
          "type": "uint32"
        },
        {
          "internalType": "uint64",
          "name": "expiry",
          "type": "uint64"
        }
      ],
      "name": "setSubnodeOwner",
      "outputs": [
        {
          "internalType": "bytes32",
          "name": "node",
          "type": "bytes32"
        }
      ],
      "stateMutability": "nonpayable",
      "type": "function"
    },
    {
      "inputs": [
        {
          "internalType": "bytes32",
          "name": "parentNode",
          "type": "bytes32"
        },
        {
          "internalType": "string",
          "name": "label",
          "type": "string"
        },
        {
          "internalType": "address",
          "name": "owner",
          "type": "address"
        },
        {
          "internalType": "address",
          "name": "resolver",
          "type": "address"
        },
        {
          "internalType": "uint64",
          "name": "ttl",
          "type": "uint64"
        },
        {
          "internalType": "uint32",
          "name": "fuses",
          "type": "uint32"
        },
        {
          "internalType": "uint64",
          "name": "expiry",
          "type": "uint64"
        }
      ],
      "name": "setSubnodeRecord",
      "outputs": [
        {
          "internalType": "bytes32",
          "name": "node",
          "type": "bytes32"
        }
      ],
      "stateMutability": "nonpayable",
      "type": "function"
    },
    {
      "inputs": [
        {
          "internalType": "bytes32",
          "name": "node",
          "type": "bytes32"
        },
        {
          "internalType": "uint64",
          "name": "ttl",
          "type": "uint64"
        }
      ],
      "name": "setTTL",
      "outputs": [],
      "stateMutability": "nonpayable",
      "type": "function"
    },
    {
      "inputs": [
        {
          "internalType": "contract INameWrapperUpgrade",
          "name": "_upgradeAddress",
          "type": "address"
        }
      ],
      "name": "setUpgradeContract",
      "outputs": [],
      "stateMutability": "nonpayable",
      "type": "function"
    },
    {
      "inputs": [
        {
          "internalType": "bytes4",
          "name": "interfaceId",
          "type": "bytes4"
        }
      ],
      "name": "supportsInterface",
      "outputs": [
        {
          "internalType": "bool",
          "name": "",
          "type": "bool"
        }
      ],
      "stateMutability": "view",
      "type": "function"
    },
    {
      "inputs": [
        {
          "internalType": "address",
          "name": "newOwner",
          "type": "address"
        }
      ],
      "name": "transferOwnership",
      "outputs": [],
      "stateMutability": "nonpayable",
      "type": "function"
    },
    {
      "inputs": [
        {
          "internalType": "bytes32",
          "name": "parentNode",
          "type": "bytes32"
        },
        {
          "internalType": "bytes32",
          "name": "labelhash",
          "type": "bytes32"
        },
        {
          "internalType": "address",
          "name": "controller",
          "type": "address"
        }
      ],
      "name": "unwrap",
      "outputs": [],
      "stateMutability": "nonpayable",
      "type": "function"
    },
    {
      "inputs": [
        {
          "internalType": "bytes32",
          "name": "labelhash",
          "type": "bytes32"
        },
        {
          "internalType": "address",
          "name": "registrant",
          "type": "address"
        },
        {
          "internalType": "address",
          "name": "controller",
          "type": "address"
        }
      ],
      "name": "unwrapETH2LD",
      "outputs": [],
      "stateMutability": "nonpayable",
      "type": "function"
    },
    {
      "inputs": [
        {
          "internalType": "bytes32",
          "name": "parentNode",
          "type": "bytes32"
        },
        {
          "internalType": "string",
          "name": "label",
          "type": "string"
        },
        {
          "internalType": "address",
          "name": "wrappedOwner",
          "type": "address"
        },
        {
          "internalType": "address",
          "name": "resolver",
          "type": "address"
        }
      ],
      "name": "upgrade",
      "outputs": [],
      "stateMutability": "nonpayable",
      "type": "function"
    },
    {
      "inputs": [],
      "name": "upgradeContract",
      "outputs": [
        {
          "internalType": "contract INameWrapperUpgrade",
          "name": "",
          "type": "address"
        }
      ],
      "stateMutability": "view",
      "type": "function"
    },
    {
      "inputs": [
        {
          "internalType": "string",
          "name": "label",
          "type": "string"
        },
        {
          "internalType": "address",
          "name": "wrappedOwner",
          "type": "address"
        },
        {
          "internalType": "address",
          "name": "resolver",
          "type": "address"
        }
      ],
      "name": "upgradeETH2LD",
      "outputs": [],
      "stateMutability": "nonpayable",
      "type": "function"
    },
    {
      "inputs": [
        {
          "internalType": "uint256",
          "name": "tokenId",
          "type": "uint256"
        }
      ],
      "name": "uri",
      "outputs": [
        {
          "internalType": "string",
          "name": "",
          "type": "string"
        }
      ],
      "stateMutability": "view",
      "type": "function"
    },
    {
      "inputs": [
        {
          "internalType": "bytes",
          "name": "name",
          "type": "bytes"
        },
        {
          "internalType": "address",
          "name": "wrappedOwner",
          "type": "address"
        },
        {
          "internalType": "address",
          "name": "resolver",
          "type": "address"
        }
      ],
      "name": "wrap",
      "outputs": [],
      "stateMutability": "nonpayable",
      "type": "function"
    },
    {
      "inputs": [
        {
          "internalType": "string",
          "name": "label",
          "type": "string"
        },
        {
          "internalType": "address",
          "name": "wrappedOwner",
          "type": "address"
        },
        {
          "internalType": "uint32",
          "name": "fuses",
          "type": "uint32"
        },
        {
          "internalType": "uint64",
          "name": "expiry",
          "type": "uint64"
        },
        {
          "internalType": "address",
          "name": "resolver",
          "type": "address"
        }
      ],
      "name": "wrapETH2LD",
      "outputs": [
        {
          "internalType": "uint64",
          "name": "",
          "type": "uint64"
        }
      ],
      "stateMutability": "nonpayable",
      "type": "function"
    }
  ],
  "transactionHash": "0x369000f458149dcc108bd3c9a773f9ac215bda462d63ff6da81eceedbc050b86",
  "args": [
    "0x2699581BB0d22aa9E848467858e14F4401A1E446",
    "0x25B6B8aB6e65Eb2cDBfDAc4a4eaf0922bC9dA75e",
    "0xbddF39556E6C9F58b4C747BEe6080E1a7fEF1A0c"
  ],
  "numDeployments": 1,
  "solcInputHash": "c71a53e3fdc44858c10a1d9de6e75ac5",
  "bytecode": "0x60c06040523480156200001157600080fd5b5060405162006104380380620061048339810160408190526200003491620001ef565b6200003f3362000186565b6001600160a01b0383811660805282811660a052600480546001600160a01b031916918316919091179055600163ffffffbf60a01b03197fa39cf1c33fecdbabad33b38aa5bbbe61efb8c9cc6e66a0317d6f3c39f578b8af8190557fa6eef7e35abe7026729641147f7915573c7e97b47efa546f5f6e3230263bcb4955604080518082019091526001815260006020808301829052908052600590527f05b8ccbb9d4d8fb16ea74ce3c29a41f1b461fbdaff4714a0d9a8eb05499746bc90620001099082620002e8565b50604080518082019091526005808252626cae8d60e31b6020808401919091527fa6ffbc01dce85b089ce59e53d7363ba0fd16b9ede2dd51ca82a2ffe8f39e5b15600052527f521147681ebabb2ecefa6ce357ab6d4c72eb52493305e0ba0d7f88a40c349ac0906200017c9082620002e8565b50505050620003b4565b600080546001600160a01b038381166001600160a01b0319831681178455604051919092169283917f8be0079c531659141344cd1fd0a4f28419497f9722a3daafe3b4186f6b6457e09190a35050565b6001600160a01b0381168114620001ec57600080fd5b50565b6000806000606084860312156200020557600080fd5b83516200021281620001d6565b60208501519093506200022581620001d6565b60408501519092506200023881620001d6565b809150509250925092565b634e487b7160e01b600052604160045260246000fd5b600181811c908216806200026e57607f821691505b6020821081036200028f57634e487b7160e01b600052602260045260246000fd5b50919050565b601f821115620002e357600081815260208120601f850160051c81016020861015620002be5750805b601f850160051c820191505b81811015620002df57828155600101620002ca565b5050505b505050565b81516001600160401b0381111562000304576200030462000243565b6200031c8162000315845462000259565b8462000295565b602080601f8311600181146200035457600084156200033b5750858301515b600019600386901b1c1916600185901b178555620002df565b600085815260208120601f198616915b82811015620003855788860151825594840194600190910190840162000364565b5085821015620003a45787850151600019600388901b60f8161c191681555b5050505050600190811b01905550565b60805160a051615c5f620004a56000396000818161047201528181610a9a01528181610b910152818161163f0152818161186e01528181611cd101528181611e0e015281816120b10152818161222d015281816133500152818161341701528181613539015281816135c801526144060152600081816104bf01528181610a2001528181610d7501528181610eea01528181611086015281816111510152818161214f015281816122cb015281816124910152818161262a0152818161281301528181612cbc01528181612d8301528181612e6501528181612ef7015281816136d7015261395c0152615c5f6000f3fe608060405234801561001057600080fd5b50600436106102e85760003560e01c80638b4dfa7511610191578063e0dba60f116100e3578063ee7eba7811610097578063f44779b911610071578063f44779b914610717578063f9547a9e1461072a578063fd0cd0d91461075657600080fd5b8063ee7eba78146106de578063f242432a146106f1578063f2fde38b1461070457600080fd5b8063e985e9c5116100c8578063e985e9c51461066f578063eb8ae530146106ab578063ed70554d146106be57600080fd5b8063e0dba60f14610649578063e72bf00f1461065c57600080fd5b8063b6bcad2611610145578063cf4088231161011f578063cf40882314610600578063d8c9921a14610613578063da8c229e1461062657600080fd5b8063b6bcad26146105b2578063c20a2eb0146105c5578063c658e086146105ed57600080fd5b80639f56dac6116101765780639f56dac614610579578063a22cb4651461058c578063adf4960a1461059f57600080fd5b80638b4dfa75146105555780638da5cb5b1461056857600080fd5b806324c1af441161024a57806347d2e9fe116101fe5780635d3590d5116101d85780635d3590d5146105275780636352211e1461053a578063715018a61461054d57600080fd5b806347d2e9fe146104e15780634e1273f4146104f4578063530954671461051457600080fd5b80632eb2c2d61161022f5780632eb2c2d61461049457806333c69ea9146104a75780633f15457f146104ba57600080fd5b806324c1af441461045a5780632b20e3971461046d57600080fd5b8063150b7a02116102a15780631896f70a116102865780631896f70a146104095780631f4e15041461041c57806320c38e2b1461044757600080fd5b8063150b7a02146103b25780631534e177146103f657600080fd5b806301ffc9a7116102d257806301ffc9a71461035a5780630e89341c1461037d57806314ab90381461039d57600080fd5b8062fdd58e146102ed5780630178fe3f14610313575b600080fd5b6103006102fb366004614a84565b610769565b6040519081526020015b60405180910390f35b610326610321366004614ab0565b61082a565b604080516001600160a01b03909416845263ffffffff909216602084015267ffffffffffffffff169082015260600161030a565b61036d610368366004614af7565b610845565b604051901515815260200161030a565b61039061038b366004614ab0565b6108e7565b60405161030a9190614b6b565b6103b06103ab366004614b9b565b610974565b005b6103c56103c0366004614c10565b610a8d565b6040517fffffffff00000000000000000000000000000000000000000000000000000000909116815260200161030a565b6103b0610404366004614c83565b610c35565b6103b0610417366004614ca0565b610cc9565b60065461042f906001600160a01b031681565b6040516001600160a01b03909116815260200161030a565b610390610455366004614ab0565b610da4565b610300610468366004614dc4565b610e3e565b61042f7f000000000000000000000000000000000000000000000000000000000000000081565b6103b06104a2366004614ef7565b6111cc565b6103b06104b5366004614fa5565b61156a565b61042f7f000000000000000000000000000000000000000000000000000000000000000081565b6103006104ef366004614fa5565b611763565b610507610502366004614feb565b611922565b60405161030a91906150e9565b60045461042f906001600160a01b031681565b6103b06105353660046150fc565b611a60565b61042f610548366004614ab0565b611b4c565b6103b0611b57565b6103b061056336600461513d565b611bbd565b6000546001600160a01b031661042f565b61030061058736600461517f565b611d33565b6103b061059a366004615212565b611ed7565b61036d6105ad366004615240565b611fdf565b6103b06105c0366004614c83565b612004565b6105d86105d3366004615240565b61232a565b60405163ffffffff909116815260200161030a565b6103006105fb366004615263565b6123d5565b6103b061060e3660046152e2565b612751565b6103b061062136600461531a565b6128ac565b61036d610634366004614c83565b60036020526000908152604090205460ff1681565b6103b0610657366004615212565b61298e565b6103b061066a366004615348565b612a65565b61036d61067d3660046153b0565b6001600160a01b03918216600090815260026020908152604080832093909416825291909152205460ff1690565b6103b06106b9366004615348565b612b76565b6103006106cc366004614ab0565b60016020526000908152604090205481565b6103b06106ec3660046153de565b612f9e565b6103b06106ff366004615452565b613094565b6103b0610712366004614c83565b6131c9565b61036d610725366004614ca0565b6132a8565b61073d6107383660046154bb565b613303565b60405167ffffffffffffffff909116815260200161030a565b61036d610764366004614ab0565b613680565b60006001600160a01b0383166107ec5760405162461bcd60e51b815260206004820152602b60248201527f455243313135353a2062616c616e636520717565727920666f7220746865207a60448201527f65726f206164647265737300000000000000000000000000000000000000000060648201526084015b60405180910390fd5b60006107f78361082a565b50509050836001600160a01b0316816001600160a01b03160361081e576001915050610824565b60009150505b92915050565b600080600061083884613752565b9250925092509193909250565b60007fffffffff0000000000000000000000000000000000000000000000000000000082167fe89c48dc0000000000000000000000000000000000000000000000000000000014806108d857507fffffffff0000000000000000000000000000000000000000000000000000000082167f150b7a0200000000000000000000000000000000000000000000000000000000145b80610824575061082482613789565b600480546040517f0e89341c0000000000000000000000000000000000000000000000000000000081529182018390526060916001600160a01b0390911690630e89341c90602401600060405180830381865afa15801561094c573d6000803e3d6000fd5b505050506040513d6000823e601f3d908101601f191682016040526108249190810190615545565b8161097f81336132a8565b6109a55760405163168ab55d60e31b8152600481018290523360248201526044016107e3565b82601060006109b38361082a565b5091505063ffffffff82821616156109e15760405163a2a7201360e01b8152600481018490526024016107e3565b6040517f14ab90380000000000000000000000000000000000000000000000000000000081526004810187905267ffffffffffffffff861660248201527f00000000000000000000000000000000000000000000000000000000000000006001600160a01b0316906314ab9038906044015b600060405180830381600087803b158015610a6d57600080fd5b505af1158015610a81573d6000803e3d6000fd5b50505050505050505050565b6000336001600160a01b037f00000000000000000000000000000000000000000000000000000000000000001614610af1576040517f1931a53800000000000000000000000000000000000000000000000000000000815260040160405180910390fd5b600080808080610b03878901896155c7565b84516020860120949950929750909550935091508990808214610b5c576040517fc65c3ccc00000000000000000000000000000000000000000000000000000000815260048101829052602481018390526044016107e3565b6040517f28ed4f6c000000000000000000000000000000000000000000000000000000008152600481018390523060248201527f00000000000000000000000000000000000000000000000000000000000000006001600160a01b0316906328ed4f6c90604401600060405180830381600087803b158015610bdd57600080fd5b505af1158015610bf1573d6000803e3d6000fd5b50505050610c02878787878761386c565b507f150b7a02000000000000000000000000000000000000000000000000000000009d9c50505050505050505050505050565b6000546001600160a01b03163314610c8f5760405162461bcd60e51b815260206004820181905260248201527f4f776e61626c653a2063616c6c6572206973206e6f7420746865206f776e657260448201526064016107e3565b600480547fffffffffffffffffffffffff0000000000000000000000000000000000000000166001600160a01b0392909216919091179055565b81610cd481336132a8565b610cfa5760405163168ab55d60e31b8152600481018290523360248201526044016107e3565b8260086000610d088361082a565b5091505063ffffffff8282161615610d365760405163a2a7201360e01b8152600481018490526024016107e3565b6040517f1896f70a000000000000000000000000000000000000000000000000000000008152600481018790526001600160a01b0386811660248301527f00000000000000000000000000000000000000000000000000000000000000001690631896f70a90604401610a53565b60056020526000908152604090208054610dbd9061563f565b80601f0160208091040260200160405190810160405280929190818152602001828054610de99061563f565b8015610e365780601f10610e0b57610100808354040283529160200191610e36565b820191906000526020600020905b815481529060010190602001808311610e1957829003601f168201915b505050505081565b600087610e4b81336132a8565b610e715760405163168ab55d60e31b8152600481018290523360248201526044016107e3565b8888805190602001206000610ead8383604080516020808201949094528082019290925280518083038201815260609092019052805191012090565b6040517f02571be3000000000000000000000000000000000000000000000000000000008152600481018290529091506000906001600160a01b037f000000000000000000000000000000000000000000000000000000000000000016906302571be390602401602060405180830381865afa158015610f31573d6000803e3d6000fd5b505050506040513d601f19601f82011682018060405250810190610f559190615692565b90506001600160a01b038116610f9f576000610f708561082a565b509150506020811615610f995760405163a2a7201360e01b8152600481018490526024016107e3565b50610fd5565b6000610faa8361082a565b509150506040811615610fd35760405163a2a7201360e01b8152600481018490526024016107e3565b505b8b5160208d012061100d8e82604080516020808201949094528082019290925280518083038201815260609092019052805191012090565b965061101b8e888b8b6139c6565b975061102687613680565b6110f5576040517f5ef2c7f0000000000000000000000000000000000000000000000000000000008152600481018f9052602481018290523060448201526001600160a01b038c8116606483015267ffffffffffffffff8c1660848301527f00000000000000000000000000000000000000000000000000000000000000001690635ef2c7f09060a401600060405180830381600087803b1580156110ca57600080fd5b505af11580156110de573d6000803e3d6000fd5b505050506110f08e888f8f8d8d613a0c565b6111bb565b6040517f5ef2c7f0000000000000000000000000000000000000000000000000000000008152600481018f9052602481018290523060448201526001600160a01b038c8116606483015267ffffffffffffffff8c1660848301527f00000000000000000000000000000000000000000000000000000000000000001690635ef2c7f09060a401600060405180830381600087803b15801561119557600080fd5b505af11580156111a9573d6000803e3d6000fd5b505050506111bb8e888f8f8d8d613ac6565b505050505050979650505050505050565b81518351146112435760405162461bcd60e51b815260206004820152602860248201527f455243313135353a2069647320616e6420616d6f756e7473206c656e6774682060448201527f6d69736d6174636800000000000000000000000000000000000000000000000060648201526084016107e3565b6001600160a01b0384166112bf5760405162461bcd60e51b815260206004820152602560248201527f455243313135353a207472616e7366657220746f20746865207a65726f20616460448201527f647265737300000000000000000000000000000000000000000000000000000060648201526084016107e3565b6001600160a01b0385163314806112f957506001600160a01b038516600090815260026020908152604080832033845290915290205460ff165b61136b5760405162461bcd60e51b815260206004820152603260248201527f455243313135353a207472616e736665722063616c6c6572206973206e6f742060448201527f6f776e6572206e6f7220617070726f766564000000000000000000000000000060648201526084016107e3565b60005b83518110156114fd57600084828151811061138b5761138b6156af565b6020026020010151905060008483815181106113a9576113a96156af565b6020026020010151905060008060006113c18561082a565b9250925092506113d2826004161590565b6113f25760405163a2a7201360e01b8152600481018690526024016107e3565b83600114801561141357508a6001600160a01b0316836001600160a01b0316145b6114855760405162461bcd60e51b815260206004820152602a60248201527f455243313135353a20696e73756666696369656e742062616c616e636520666f60448201527f72207472616e736665720000000000000000000000000000000000000000000060648201526084016107e3565b60008581526001602052604090206001600160a01b038b1677ffffffff000000000000000000000000000000000000000060a085901b16177fffffffffffffffff00000000000000000000000000000000000000000000000060c084901b161790555050505050806114f69061570d565b905061136e565b50836001600160a01b0316856001600160a01b0316336001600160a01b03167f4a39dc06d4c0dbc64b70af90fd698a233a518aa5d07e595d983b8c0526c8f7fb868660405161154d929190615745565b60405180910390a4611563338686868686613b63565b5050505050565b604080516020808201879052818301869052825180830384018152606090920190925280519101206000808061159f8461082a565b91945092509050600080806115b38b61082a565b9093509150507f590043fe2317a4f7631a61ac28c9c45f02e946121d22ae357d5d00170c61a4eb8b016116b9576115ea87336132a8565b6116105760405163168ab55d60e31b8152600481018890523360248201526044016107e3565b6040517fd6e4fa86000000000000000000000000000000000000000000000000000000008152600481018b90527f00000000000000000000000000000000000000000000000000000000000000006001600160a01b03169063d6e4fa8690602401602060405180830381865afa15801561168e573d6000803e3d6000fd5b505050506040513d601f19601f820116820180604052508101906116b29190615773565b92506116ed565b6116c38b336132a8565b6116e95760405163168ab55d60e31b8152600481018890523360248201526044016107e3565b8092505b6116f8878a84613d6f565b611703888585613da5565b9750604085161580159061172557508463ffffffff1689861763ffffffff1614155b156117465760405163a2a7201360e01b8152600481018890526024016107e3565b9784179761175687878b8b613def565b5050505050505050505050565b3360009081526003602052604081205460ff166117e85760405162461bcd60e51b815260206004820152602860248201527f436f6e74726f6c6c61626c653a2043616c6c6572206973206e6f74206120636f60448201527f6e74726f6c6c657200000000000000000000000000000000000000000000000060648201526084016107e3565b604080517fa6ffbc01dce85b089ce59e53d7363ba0fd16b9ede2dd51ca82a2ffe8f39e5b15602080830191909152818301889052825180830384018152606090920190925280519101206000906040517fc475abff00000000000000000000000000000000000000000000000000000000815260048101889052602481018790529091507f00000000000000000000000000000000000000000000000000000000000000006001600160a01b03169063c475abff906044016020604051808303816000875af11580156118bf573d6000803e3d6000fd5b505050506040513d601f19601f820116820180604052508101906118e39190615773565b9150600080806118f28461082a565b925092509250611903868287613da5565b9550611916848460408a86171789613e4b565b50505050949350505050565b6060815183511461199b5760405162461bcd60e51b815260206004820152602960248201527f455243313135353a206163636f756e747320616e6420696473206c656e67746860448201527f206d69736d61746368000000000000000000000000000000000000000000000060648201526084016107e3565b6000835167ffffffffffffffff8111156119b7576119b7614cd0565b6040519080825280602002602001820160405280156119e0578160200160208202803683370190505b50905060005b8451811015611a5857611a2b858281518110611a0457611a046156af565b6020026020010151858381518110611a1e57611a1e6156af565b6020026020010151610769565b828281518110611a3d57611a3d6156af565b6020908102919091010152611a518161570d565b90506119e6565b509392505050565b6000546001600160a01b03163314611aba5760405162461bcd60e51b815260206004820181905260248201527f4f776e61626c653a2063616c6c6572206973206e6f7420746865206f776e657260448201526064016107e3565b6040517fa9059cbb0000000000000000000000000000000000000000000000000000000081526001600160a01b0383811660048301526024820183905284169063a9059cbb906044016020604051808303816000875af1158015611b22573d6000803e3d6000fd5b505050506040513d601f19601f82011682018060405250810190611b46919061578c565b50505050565b600061082482613ebc565b6000546001600160a01b03163314611bb15760405162461bcd60e51b815260206004820181905260248201527f4f776e61626c653a2063616c6c6572206973206e6f7420746865206f776e657260448201526064016107e3565b611bbb6000613ed2565b565b604080517fa6ffbc01dce85b089ce59e53d7363ba0fd16b9ede2dd51ca82a2ffe8f39e5b1560208083019190915281830186905282518083038401815260609092019092528051910120611c1181336132a8565b611c375760405163168ab55d60e31b8152600481018290523360248201526044016107e3565b604080517fa6ffbc01dce85b089ce59e53d7363ba0fd16b9ede2dd51ca82a2ffe8f39e5b1560208083019190915281830187905282518083038401815260609092019092528051910120611c8c905b83613f3a565b6040517f42842e0e0000000000000000000000000000000000000000000000000000000081523060048201526001600160a01b038481166024830152604482018690527f000000000000000000000000000000000000000000000000000000000000000016906342842e0e90606401600060405180830381600087803b158015611d1557600080fd5b505af1158015611d29573d6000803e3d6000fd5b5050505050505050565b3360009081526003602052604081205460ff16611db85760405162461bcd60e51b815260206004820152602860248201527f436f6e74726f6c6c61626c653a2043616c6c6572206973206e6f74206120636f60448201527f6e74726f6c6c657200000000000000000000000000000000000000000000000060648201526084016107e3565b60008888604051611dca9291906157a9565b6040519081900381207ffca247ac000000000000000000000000000000000000000000000000000000008252600482018190523060248301526044820188905291507f00000000000000000000000000000000000000000000000000000000000000006001600160a01b03169063fca247ac906064016020604051808303816000875af1158015611e5f573d6000803e3d6000fd5b505050506040513d601f19601f82011682018060405250810190611e839190615773565b9150611eca89898080601f0160208091040260200160405190810160405280939291908181526020018383808284376000920191909152508b92508891508790508961386c565b5050979650505050505050565b6001600160a01b0382163303611f555760405162461bcd60e51b815260206004820152602960248201527f455243313135353a2073657474696e6720617070726f76616c2073746174757360448201527f20666f722073656c66000000000000000000000000000000000000000000000060648201526084016107e3565b3360008181526002602090815260408083206001600160a01b0387168085529083529281902080547fffffffffffffffffffffffffffffffffffffffffffffffffffffffffffffff001686151590811790915590519081529192917f17307eab39ab6107e8899845ad3d59bd9653f200f220920489ca2b5937696c31910160405180910390a35050565b600080611feb8461082a565b50841663ffffffff908116908516149250505092915050565b6000546001600160a01b0316331461205e5760405162461bcd60e51b815260206004820181905260248201527f4f776e61626c653a2063616c6c6572206973206e6f7420746865206f776e657260448201526064016107e3565b6006546001600160a01b0316156121b0576006546040517fa22cb4650000000000000000000000000000000000000000000000000000000081526001600160a01b039182166004820152600060248201527f00000000000000000000000000000000000000000000000000000000000000009091169063a22cb46590604401600060405180830381600087803b1580156120f757600080fd5b505af115801561210b573d6000803e3d6000fd5b50506006546040517fa22cb4650000000000000000000000000000000000000000000000000000000081526001600160a01b039182166004820152600060248201527f0000000000000000000000000000000000000000000000000000000000000000909116925063a22cb4659150604401600060405180830381600087803b15801561219757600080fd5b505af11580156121ab573d6000803e3d6000fd5b505050505b600680547fffffffffffffffffffffffff0000000000000000000000000000000000000000166001600160a01b03831690811790915515612327576006546040517fa22cb4650000000000000000000000000000000000000000000000000000000081526001600160a01b039182166004820152600160248201527f00000000000000000000000000000000000000000000000000000000000000009091169063a22cb46590604401600060405180830381600087803b15801561227357600080fd5b505af1158015612287573d6000803e3d6000fd5b50506006546040517fa22cb4650000000000000000000000000000000000000000000000000000000081526001600160a01b039182166004820152600160248201527f0000000000000000000000000000000000000000000000000000000000000000909116925063a22cb4659150604401600060405180830381600087803b15801561231357600080fd5b505af1158015611563573d6000803e3d6000fd5b50565b60008261233781336132a8565b61235d5760405163168ab55d60e31b8152600481018290523360248201526044016107e3565b836002600061236b8361082a565b5091505063ffffffff82821616156123995760405163a2a7201360e01b8152600481018490526024016107e3565b6123a38787613f6c565b600080806123b08a61082a565b92509250925081891798506123c78a848b84613def565b509698975050505050505050565b6000866123e281336132a8565b6124085760405163168ab55d60e31b8152600481018290523360248201526044016107e3565b8787876040516124199291906157a9565b604051809103902060006124548383604080516020808201949094528082019290925280518083038201815260609092019052805191012090565b6040517f02571be3000000000000000000000000000000000000000000000000000000008152600481018290529091506000906001600160a01b037f000000000000000000000000000000000000000000000000000000000000000016906302571be390602401602060405180830381865afa1580156124d8573d6000803e3d6000fd5b505050506040513d601f19601f820116820180604052508101906124fc9190615692565b90506001600160a01b0381166125465760006125178561082a565b5091505060208116156125405760405163a2a7201360e01b8152600481018490526024016107e3565b5061257c565b60006125518361082a565b50915050604081161561257a5760405163a2a7201360e01b8152600481018490526024016107e3565b505b60008b8b60405161258e9291906157a9565b604051809103902090506125c98d82604080516020808201949094528082019290925280518083038201815260609092019052805191012090565b96506125d78d888b8b6139c6565b97506125e287613680565b6126ef576040517f06ab5923000000000000000000000000000000000000000000000000000000008152600481018e9052602481018290523060448201526001600160a01b037f000000000000000000000000000000000000000000000000000000000000000016906306ab5923906064016020604051808303816000875af1158015612673573d6000803e3d6000fd5b505050506040513d601f19601f820116820180604052508101906126979190615773565b506126ea8d888e8e8080601f016020809104026020016040519081016040528093929190818152602001838380828437600081840152601f19601f820116905080830192505050505050508d8d8d613a0c565b612741565b6127418d888e8e8080601f016020809104026020016040519081016040528093929190818152602001838380828437600081840152601f19601f820116905080830192505050505050508d8d8d613ac6565b5050505050509695505050505050565b8361275c81336132a8565b6127825760405163168ab55d60e31b8152600481018290523360248201526044016107e3565b84601c60006127908361082a565b5091505063ffffffff82821616156127be5760405163a2a7201360e01b8152600481018490526024016107e3565b6040517fcf408823000000000000000000000000000000000000000000000000000000008152600481018990523060248201526001600160a01b03878116604483015267ffffffffffffffff871660648301527f0000000000000000000000000000000000000000000000000000000000000000169063cf40882390608401600060405180830381600087803b15801561285757600080fd5b505af115801561286b573d6000803e3d6000fd5b50505050600061287d8960001c61082a565b505090506128a181898b60001c600160405180602001604052806000815250613f9b565b505050505050505050565b604080516020808201869052818301859052825180830384018152606090920190925280519101206128de81336132a8565b6129045760405163168ab55d60e31b8152600481018290523360248201526044016107e3565b7f590043fe2317a4f7631a61ac28c9c45f02e946121d22ae357d5d00170c61a4eb840161295d576040517f615a470300000000000000000000000000000000000000000000000000000000815260040160405180910390fd5b60408051602080820187905281830186905282518083038401815260609092019092528051910120611b4690611c86565b6000546001600160a01b031633146129e85760405162461bcd60e51b815260206004820181905260248201527f4f776e61626c653a2063616c6c6572206973206e6f7420746865206f776e657260448201526064016107e3565b6001600160a01b03821660008181526003602090815260409182902080547fffffffffffffffffffffffffffffffffffffffffffffffffffffffffffffff001685151590811790915591519182527f4c97694570a07277810af7e5669ffd5f6a2d6b74b6e9a274b8b870fd5114cf87910160405180910390a25050565b60008484604051612a779291906157a9565b60405190819003902090506000612ad57fa6ffbc01dce85b089ce59e53d7363ba0fd16b9ede2dd51ca82a2ffe8f39e5b1583604080516020808201949094528082019290925280518083038201815260609092019052805191012090565b9050600080612ae383614149565b6006546040517ff9547a9e0000000000000000000000000000000000000000000000000000000081529294509092506001600160a01b03169063f9547a9e90612b3a908b908b908b90889088908d906004016157e4565b600060405180830381600087803b158015612b5457600080fd5b505af1158015612b68573d6000803e3d6000fd5b505050505050505050505050565b600080612bbd600087878080601f01602080910402602001604051908101604052809392919081815260200183838082843760009201919091525092939250506141de9050565b915091506000612c068288888080601f01602080910402602001604051908101604052809392919081815260200183838082843760009201919091525092939250506142959050565b604080516020808201849052818301879052825180830384018152606090920190925280519101209091507f590043fe2317a4f7631a61ac28c9c45f02e946121d22ae357d5d00170c61a4eb8201612c8a576040517f615a470300000000000000000000000000000000000000000000000000000000815260040160405180910390fd5b6040517f02571be3000000000000000000000000000000000000000000000000000000008152600481018290526000907f00000000000000000000000000000000000000000000000000000000000000006001600160a01b0316906302571be390602401602060405180830381865afa158015612d0b573d6000803e3d6000fd5b505050506040513d601f19601f82011682018060405250810190612d2f9190615692565b90506001600160a01b0381163314801590612df057506040517fe985e9c50000000000000000000000000000000000000000000000000000000081526001600160a01b0382811660048301523360248301527f0000000000000000000000000000000000000000000000000000000000000000169063e985e9c590604401602060405180830381865afa158015612dca573d6000803e3d6000fd5b505050506040513d601f19601f82011682018060405250810190612dee919061578c565b155b15612e175760405163168ab55d60e31b8152600481018390523360248201526044016107e3565b6001600160a01b03861615612ec2576040517f1896f70a000000000000000000000000000000000000000000000000000000008152600481018390526001600160a01b0387811660248301527f00000000000000000000000000000000000000000000000000000000000000001690631896f70a90604401600060405180830381600087803b158015612ea957600080fd5b505af1158015612ebd573d6000803e3d6000fd5b505050505b6040517f5b0fc9c3000000000000000000000000000000000000000000000000000000008152600481018390523060248201527f00000000000000000000000000000000000000000000000000000000000000006001600160a01b031690635b0fc9c390604401600060405180830381600087803b158015612f4357600080fd5b505af1158015612f57573d6000803e3d6000fd5b505050506128a1828a8a8080601f01602080910402602001604051908101604052809392919081815260200183838082843760009201829052508d93509150819050614354565b60008484604051612fb09291906157a9565b604051809103902090506000612fed8783604080516020808201949094528082019290925280518083038201815260609092019052805191012090565b9050600080612ffb83614149565b6006546040517f24c1af440000000000000000000000000000000000000000000000000000000081529294509092506001600160a01b0316906324c1af4490613057908c908c908c908c908c906000908b908b9060040161583a565b600060405180830381600087803b15801561307157600080fd5b505af1158015613085573d6000803e3d6000fd5b50505050505050505050505050565b6001600160a01b0384166131105760405162461bcd60e51b815260206004820152602560248201527f455243313135353a207472616e7366657220746f20746865207a65726f20616460448201527f647265737300000000000000000000000000000000000000000000000000000060648201526084016107e3565b6001600160a01b03851633148061314a57506001600160a01b038516600090815260026020908152604080832033845290915290205460ff165b6131bc5760405162461bcd60e51b815260206004820152602960248201527f455243313135353a2063616c6c6572206973206e6f74206f776e6572206e6f7260448201527f20617070726f766564000000000000000000000000000000000000000000000060648201526084016107e3565b6115638585858585613f9b565b6000546001600160a01b031633146132235760405162461bcd60e51b815260206004820181905260248201527f4f776e61626c653a2063616c6c6572206973206e6f7420746865206f776e657260448201526064016107e3565b6001600160a01b03811661329f5760405162461bcd60e51b815260206004820152602660248201527f4f776e61626c653a206e6577206f776e657220697320746865207a65726f206160448201527f646472657373000000000000000000000000000000000000000000000000000060648201526084016107e3565b61232781613ed2565b6000806132b484611b4c565b9050826001600160a01b0316816001600160a01b031614806132fb57506001600160a01b0380821660009081526002602090815260408083209387168352929052205460ff165b949350505050565b60008087876040516133169291906157a9565b6040519081900381207f6352211e0000000000000000000000000000000000000000000000000000000082526004820181905291506000907f00000000000000000000000000000000000000000000000000000000000000006001600160a01b031690636352211e90602401602060405180830381865afa15801561339f573d6000803e3d6000fd5b505050506040513d601f19601f820116820180604052508101906133c39190615692565b90506001600160a01b038116331480159061348457506040517fe985e9c50000000000000000000000000000000000000000000000000000000081526001600160a01b0382811660048301523360248301527f0000000000000000000000000000000000000000000000000000000000000000169063e985e9c590604401602060405180830381865afa15801561345e573d6000803e3d6000fd5b505050506040513d601f19601f82011682018060405250810190613482919061578c565b155b156134f457604080517fa6ffbc01dce85b089ce59e53d7363ba0fd16b9ede2dd51ca82a2ffe8f39e5b156020808301919091528183018590528251808303840181526060830193849052805191012063168ab55d60e31b909252606481019190915233608482015260a4016107e3565b6040517f23b872dd0000000000000000000000000000000000000000000000000000000081526001600160a01b038281166004830152306024830152604482018490527f000000000000000000000000000000000000000000000000000000000000000016906323b872dd90606401600060405180830381600087803b15801561357d57600080fd5b505af1158015613591573d6000803e3d6000fd5b50506040517f28ed4f6c000000000000000000000000000000000000000000000000000000008152600481018590523060248201527f00000000000000000000000000000000000000000000000000000000000000006001600160a01b031692506328ed4f6c9150604401600060405180830381600087803b15801561361657600080fd5b505af115801561362a573d6000803e3d6000fd5b5050505061367389898080601f0160208091040260200160405190810160405280939291908181526020018383808284376000920191909152508b92508a91508990508861386c565b9998505050505050505050565b60008061368c83611b4c565b6001600160a01b03161415801561082457506040517f02571be30000000000000000000000000000000000000000000000000000000081526004810183905230906001600160a01b037f000000000000000000000000000000000000000000000000000000000000000016906302571be390602401602060405180830381865afa15801561371e573d6000803e3d6000fd5b505050506040513d601f19601f820116820180604052508101906137429190615692565b6001600160a01b03161492915050565b6000818152600160205260408120549060c082901c82428210156137795760009250613781565b60a081901c92505b509193909250565b60007fffffffff0000000000000000000000000000000000000000000000000000000082167fd9b67a2600000000000000000000000000000000000000000000000000000000148061381c57507fffffffff0000000000000000000000000000000000000000000000000000000082167f0e89341c00000000000000000000000000000000000000000000000000000000145b8061082457507f01ffc9a7000000000000000000000000000000000000000000000000000000007fffffffff00000000000000000000000000000000000000000000000000000000831614610824565b84516020860120600090816138c87fa6ffbc01dce85b089ce59e53d7363ba0fd16b9ede2dd51ca82a2ffe8f39e5b1583604080516020808201949094528082019290925280518083038201815260609092019052805191012090565b905060006138d78284886143be565b9750915061390e90507fa6ffbc01dce85b089ce59e53d7363ba0fd16b9ede2dd51ca82a2ffe8f39e5b15838b8b60458c178b613a0c565b6001600160a01b038516156139b9576040517f1896f70a000000000000000000000000000000000000000000000000000000008152600481018390526001600160a01b0386811660248301527f00000000000000000000000000000000000000000000000000000000000000001690631896f70a90604401600060405180830381600087803b1580156139a057600080fd5b505af11580156139b4573d6000803e3d6000fd5b505050505b5093979650505050505050565b6000806139d28561082a565b925050506000806139e58860001c61082a565b92509250506139f5878784613d6f565b613a00858483613da5565b98975050505050505050565b60008681526005602052604081208054613aae918791613a2b9061563f565b80601f0160208091040260200160405190810160405280929190818152602001828054613a579061563f565b8015613aa45780601f10613a7957610100808354040283529160200191613aa4565b820191906000526020600020905b815481529060010190602001808311613a8757829003601f168201915b5050505050614496565b9050613abd8682868686614354565b50505050505050565b6000613ad186611b4c565b90506000613af786600560008b81526020019081526020016000208054613a2b9061563f565b6000888152600560205260409020805491925090613b149061563f565b9050600003613b37576000878152600560205260409020613b3582826158e8565b505b613b4387838686613def565b611d2982868960001c600160405180602001604052806000815250613f9b565b6001600160a01b0384163b15613d67576040517fbc197c810000000000000000000000000000000000000000000000000000000081526001600160a01b0385169063bc197c8190613bc090899089908890889088906004016159e4565b6020604051808303816000875af1925050508015613bfb575060408051601f3d908101601f19168201909252613bf891810190615a36565b60015b613cb057613c07615a53565b806308c379a003613c405750613c1b615a6f565b80613c265750613c42565b8060405162461bcd60e51b81526004016107e39190614b6b565b505b60405162461bcd60e51b815260206004820152603460248201527f455243313135353a207472616e7366657220746f206e6f6e204552433131353560448201527f526563656976657220696d706c656d656e74657200000000000000000000000060648201526084016107e3565b7fffffffff0000000000000000000000000000000000000000000000000000000081167fbc197c810000000000000000000000000000000000000000000000000000000014613abd5760405162461bcd60e51b815260206004820152602860248201527f455243313135353a204552433131353552656365697665722072656a6563746560448201527f6420746f6b656e7300000000000000000000000000000000000000000000000060648201526084016107e3565b505050505050565b6040828116146001821615818015613d845750805b156115635760405163a2a7201360e01b8152600481018690526024016107e3565b60008167ffffffffffffffff168467ffffffffffffffff161115613dc7578193505b8267ffffffffffffffff168467ffffffffffffffff161015613de7578293505b509192915050565b613dfb84848484613e4b565b6040805163ffffffff8416815267ffffffffffffffff8316602082015285917f936318e296f824e203b086d97bb155a0200cec4847efea1fb4b9b7f924157355910160405180910390a250505050565b613e55848361453f565b60008481526001602052604090206001600160a01b03841677ffffffff000000000000000000000000000000000000000060a085901b16177fffffffffffffffff00000000000000000000000000000000000000000000000060c084901b16179055611b46565b600080613ec88361082a565b5090949350505050565b600080546001600160a01b038381167fffffffffffffffffffffffff0000000000000000000000000000000000000000831681178455604051919092169283917f8be0079c531659141344cd1fd0a4f28419497f9722a3daafe3b4186f6b6457e09190a35050565b6040517f7406228400000000000000000000000000000000000000000000000000000000815260040160405180910390fd5b6040811615613f975760405163168ab55d60e31b8152600481018390523360248201526044016107e3565b5050565b6000806000613fa98661082a565b925092509250613fba826004161590565b613fda5760405163a2a7201360e01b8152600481018790526024016107e3565b846001148015613ffb5750876001600160a01b0316836001600160a01b0316145b61406d5760405162461bcd60e51b815260206004820152602a60248201527f455243313135353a20696e73756666696369656e742062616c616e636520666f60448201527f72207472616e736665720000000000000000000000000000000000000000000060648201526084016107e3565b866001600160a01b0316836001600160a01b03160361408e57505050611563565b60008681526001602052604090206001600160a01b03881677ffffffff000000000000000000000000000000000000000060a085901b16177fffffffffffffffff00000000000000000000000000000000000000000000000060c084901b1617905560408051878152602081018790526001600160a01b03808a1692908b169133917fc3d58168c5ae7397731d063d5bbf3d657854427343f4c083240f7aacaa2d0f62910160405180910390a4611d29338989898989614578565b60065460009081906001600160a01b0316614190576040517f24c1d6d400000000000000000000000000000000000000000000000000000000815260040160405180910390fd5b61419a83336132a8565b6141c05760405163168ab55d60e31b8152600481018490523360248201526044016107e3565b6141c98361082a565b90935091506141d99050836146d3565b915091565b600080835183106142315760405162461bcd60e51b815260206004820152601e60248201527f726561644c6162656c3a20496e646578206f7574206f6620626f756e6473000060448201526064016107e3565b6000848481518110614245576142456156af565b016020015160f81c905080156142715761426a85614264866001615b17565b8361478e565b9250614276565b600092505b6142808185615b17565b61428b906001615b17565b9150509250929050565b60008060006142a485856141de565b90925090508161431657600185516142bc9190615b2a565b841461430a5760405162461bcd60e51b815260206004820152601d60248201527f6e616d65686173683a204a756e6b20617420656e64206f66206e616d6500000060448201526064016107e3565b50600091506108249050565b6143208582614295565b6040805160208101929092528101839052606001604051602081830303815290604052805190602001209250505092915050565b600085815260056020526040902061436c85826158e8565b50614379858484846147b2565b847f8ce7013e8abebc55c3890a68f5a27c67c3f7efa64e584de5fb22363c606fd340858585856040516143af9493929190615b3d565b60405180910390a25050505050565b60008080806143cc8761082a565b6040517fd6e4fa86000000000000000000000000000000000000000000000000000000008152600481018a905292965090945091506000907f00000000000000000000000000000000000000000000000000000000000000006001600160a01b03169063d6e4fa8690602401602060405180830381865afa158015614455573d6000803e3d6000fd5b505050506040513d601f19601f820116820180604052508101906144799190615773565b9050614486868383613da5565b9550859250505093509350939050565b60606001835110156144d4576040517f280dacb600000000000000000000000000000000000000000000000000000000815260040160405180910390fd5b60ff8351111561451257826040517fe3ba295f0000000000000000000000000000000000000000000000000000000081526004016107e39190614b6b565b8251838360405160200161452893929190615b85565b604051602081830303815290604052905092915050565b63ffffffbf8116158015906145575750604181811614155b15613f975760405163a2a7201360e01b8152600481018390526024016107e3565b6001600160a01b0384163b15613d67576040517ff23a6e610000000000000000000000000000000000000000000000000000000081526001600160a01b0385169063f23a6e61906145d59089908990889088908890600401615be6565b6020604051808303816000875af1925050508015614610575060408051601f3d908101601f1916820190925261460d91810190615a36565b60015b61461c57613c07615a53565b7fffffffff0000000000000000000000000000000000000000000000000000000081167ff23a6e610000000000000000000000000000000000000000000000000000000014613abd5760405162461bcd60e51b815260206004820152602860248201527f455243313135353a204552433131353552656365697665722072656a6563746560448201527f6420746f6b656e7300000000000000000000000000000000000000000000000060648201526084016107e3565b60008060006146e18461082a565b600087815260016020526040902077ffffffff000000000000000000000000000000000000000060a084901b167fffffffffffffffff00000000000000000000000000000000000000000000000060c084901b161790559194509250905060408051858152600160208201526000916001600160a01b0386169133917fc3d58168c5ae7397731d063d5bbf3d657854427343f4c083240f7aacaa2d0f62910160405180910390a450505050565b825160009061479d8385615b17565b11156147a857600080fd5b5091016020012090565b6147bc848361453f565b60006147c785611b4c565b90506001600160a01b03811615614818576147e1856146d3565b6040516000815285907fee2ba1195c65bcf218a83d874335c6bf9d9067b4c672f3c3bf16cf40de7586c49060200160405180910390a25b61156385858585836000808061482d8461082a565b9250925092508467ffffffffffffffff168167ffffffffffffffff161115614853578094505b6001600160a01b038316156148aa5760405162461bcd60e51b815260206004820152601f60248201527f455243313135353a206d696e74206f66206578697374696e6720746f6b656e0060448201526064016107e3565b6001600160a01b0387166149265760405162461bcd60e51b815260206004820152602160248201527f455243313135353a206d696e7420746f20746865207a65726f2061646472657360448201527f730000000000000000000000000000000000000000000000000000000000000060648201526084016107e3565b306001600160a01b038816036149a45760405162461bcd60e51b815260206004820152603460248201527f455243313135353a206e65774f776e65722063616e6e6f74206265207468652060448201527f4e616d655772617070657220636f6e747261637400000000000000000000000060648201526084016107e3565b60008481526001602052604090206001600160a01b03881677ffffffff000000000000000000000000000000000000000088851760a01b16177fffffffffffffffff00000000000000000000000000000000000000000000000060c088901b1617905560408051858152600160208201526001600160a01b0389169160009133917fc3d58168c5ae7397731d063d5bbf3d657854427343f4c083240f7aacaa2d0f62910160405180910390a4611d293360008987600160405180602001604052806000815250614578565b6001600160a01b038116811461232757600080fd5b60008060408385031215614a9757600080fd5b8235614aa281614a6f565b946020939093013593505050565b600060208284031215614ac257600080fd5b5035919050565b7fffffffff000000000000000000000000000000000000000000000000000000008116811461232757600080fd5b600060208284031215614b0957600080fd5b8135614b1481614ac9565b9392505050565b60005b83811015614b36578181015183820152602001614b1e565b50506000910152565b60008151808452614b57816020860160208601614b1b565b601f01601f19169290920160200192915050565b602081526000614b146020830184614b3f565b803567ffffffffffffffff81168114614b9657600080fd5b919050565b60008060408385031215614bae57600080fd5b82359150614bbe60208401614b7e565b90509250929050565b60008083601f840112614bd957600080fd5b50813567ffffffffffffffff811115614bf157600080fd5b602083019150836020828501011115614c0957600080fd5b9250929050565b600080600080600060808688031215614c2857600080fd5b8535614c3381614a6f565b94506020860135614c4381614a6f565b935060408601359250606086013567ffffffffffffffff811115614c6657600080fd5b614c7288828901614bc7565b969995985093965092949392505050565b600060208284031215614c9557600080fd5b8135614b1481614a6f565b60008060408385031215614cb357600080fd5b823591506020830135614cc581614a6f565b809150509250929050565b7f4e487b7100000000000000000000000000000000000000000000000000000000600052604160045260246000fd5b601f19601f830116810181811067ffffffffffffffff82111715614d2557614d25614cd0565b6040525050565b600067ffffffffffffffff821115614d4657614d46614cd0565b50601f01601f191660200190565b600082601f830112614d6557600080fd5b8135614d7081614d2c565b604051614d7d8282614cff565b828152856020848701011115614d9257600080fd5b82602086016020830137600092810160200192909252509392505050565b803563ffffffff81168114614b9657600080fd5b600080600080600080600060e0888a031215614ddf57600080fd5b87359650602088013567ffffffffffffffff811115614dfd57600080fd5b614e098a828b01614d54565b9650506040880135614e1a81614a6f565b94506060880135614e2a81614a6f565b9350614e3860808901614b7e565b9250614e4660a08901614db0565b9150614e5460c08901614b7e565b905092959891949750929550565b600067ffffffffffffffff821115614e7c57614e7c614cd0565b5060051b60200190565b600082601f830112614e9757600080fd5b81356020614ea482614e62565b604051614eb18282614cff565b83815260059390931b8501820192828101915086841115614ed157600080fd5b8286015b84811015614eec5780358352918301918301614ed5565b509695505050505050565b600080600080600060a08688031215614f0f57600080fd5b8535614f1a81614a6f565b94506020860135614f2a81614a6f565b9350604086013567ffffffffffffffff80821115614f4757600080fd5b614f5389838a01614e86565b94506060880135915080821115614f6957600080fd5b614f7589838a01614e86565b93506080880135915080821115614f8b57600080fd5b50614f9888828901614d54565b9150509295509295909350565b60008060008060808587031215614fbb57600080fd5b8435935060208501359250614fd260408601614db0565b9150614fe060608601614b7e565b905092959194509250565b60008060408385031215614ffe57600080fd5b823567ffffffffffffffff8082111561501657600080fd5b818501915085601f83011261502a57600080fd5b8135602061503782614e62565b6040516150448282614cff565b83815260059390931b850182019282810191508984111561506457600080fd5b948201945b8386101561508b57853561507c81614a6f565b82529482019490820190615069565b965050860135925050808211156150a157600080fd5b5061428b85828601614e86565b600081518084526020808501945080840160005b838110156150de578151875295820195908201906001016150c2565b509495945050505050565b602081526000614b1460208301846150ae565b60008060006060848603121561511157600080fd5b833561511c81614a6f565b9250602084013561512c81614a6f565b929592945050506040919091013590565b60008060006060848603121561515257600080fd5b83359250602084013561516481614a6f565b9150604084013561517481614a6f565b809150509250925092565b600080600080600080600060c0888a03121561519a57600080fd5b873567ffffffffffffffff8111156151b157600080fd5b6151bd8a828b01614bc7565b90985096505060208801356151d181614a6f565b94506040880135935060608801356151e881614a6f565b92506151f660808901614db0565b9150614e5460a08901614b7e565b801515811461232757600080fd5b6000806040838503121561522557600080fd5b823561523081614a6f565b91506020830135614cc581615204565b6000806040838503121561525357600080fd5b82359150614bbe60208401614db0565b60008060008060008060a0878903121561527c57600080fd5b86359550602087013567ffffffffffffffff81111561529a57600080fd5b6152a689828a01614bc7565b90965094505060408701356152ba81614a6f565b92506152c860608801614db0565b91506152d660808801614b7e565b90509295509295509295565b600080600080608085870312156152f857600080fd5b84359350602085013561530a81614a6f565b92506040850135614fd281614a6f565b60008060006060848603121561532f57600080fd5b8335925060208401359150604084013561517481614a6f565b6000806000806060858703121561535e57600080fd5b843567ffffffffffffffff81111561537557600080fd5b61538187828801614bc7565b909550935050602085013561539581614a6f565b915060408501356153a581614a6f565b939692955090935050565b600080604083850312156153c357600080fd5b82356153ce81614a6f565b91506020830135614cc581614a6f565b6000806000806000608086880312156153f657600080fd5b85359450602086013567ffffffffffffffff81111561541457600080fd5b61542088828901614bc7565b909550935050604086013561543481614a6f565b9150606086013561544481614a6f565b809150509295509295909350565b600080600080600060a0868803121561546a57600080fd5b853561547581614a6f565b9450602086013561548581614a6f565b93506040860135925060608601359150608086013567ffffffffffffffff8111156154af57600080fd5b614f9888828901614d54565b60008060008060008060a087890312156154d457600080fd5b863567ffffffffffffffff8111156154eb57600080fd5b6154f789828a01614bc7565b909750955050602087013561550b81614a6f565b935061551960408801614db0565b925061552760608801614b7e565b9150608087013561553781614a6f565b809150509295509295509295565b60006020828403121561555757600080fd5b815167ffffffffffffffff81111561556e57600080fd5b8201601f8101841361557f57600080fd5b805161558a81614d2c565b6040516155978282614cff565b8281528660208486010111156155ac57600080fd5b6155bd836020830160208701614b1b565b9695505050505050565b600080600080600060a086880312156155df57600080fd5b853567ffffffffffffffff8111156155f657600080fd5b61560288828901614d54565b955050602086013561561381614a6f565b935061562160408701614db0565b925061562f60608701614b7e565b9150608086013561544481614a6f565b600181811c9082168061565357607f821691505b60208210810361568c577f4e487b7100000000000000000000000000000000000000000000000000000000600052602260045260246000fd5b50919050565b6000602082840312156156a457600080fd5b8151614b1481614a6f565b7f4e487b7100000000000000000000000000000000000000000000000000000000600052603260045260246000fd5b7f4e487b7100000000000000000000000000000000000000000000000000000000600052601160045260246000fd5b60007fffffffffffffffffffffffffffffffffffffffffffffffffffffffffffffffff820361573e5761573e6156de565b5060010190565b60408152600061575860408301856150ae565b828103602084015261576a81856150ae565b95945050505050565b60006020828403121561578557600080fd5b5051919050565b60006020828403121561579e57600080fd5b8151614b1481615204565b8183823760009101908152919050565b818352818160208501375060006020828401015260006020601f19601f840116840101905092915050565b60a0815260006157f860a08301888a6157b9565b90506001600160a01b03808716602084015263ffffffff8616604084015267ffffffffffffffff85166060840152808416608084015250979650505050505050565b88815260e06020820152600061585460e08301898b6157b9565b6001600160a01b03978816604084015295909616606082015267ffffffffffffffff938416608082015263ffffffff9290921660a083015290911660c090910152949350505050565b601f8211156158e357600081815260208120601f850160051c810160208610156158c45750805b601f850160051c820191505b81811015613d67578281556001016158d0565b505050565b815167ffffffffffffffff81111561590257615902614cd0565b61591681615910845461563f565b8461589d565b602080601f83116001811461596957600084156159335750858301515b7fffffffffffffffffffffffffffffffffffffffffffffffffffffffffffffffff600386901b1c1916600185901b178555613d67565b600085815260208120601f198616915b8281101561599857888601518255948401946001909101908401615979565b50858210156159d457878501517fffffffffffffffffffffffffffffffffffffffffffffffffffffffffffffffff600388901b60f8161c191681555b5050505050600190811b01905550565b60006001600160a01b03808816835280871660208401525060a06040830152615a1060a08301866150ae565b8281036060840152615a2281866150ae565b90508281036080840152613a008185614b3f565b600060208284031215615a4857600080fd5b8151614b1481614ac9565b600060033d1115615a6c5760046000803e5060005160e01c5b90565b600060443d1015615a7d5790565b6040517ffffffffffffffffffffffffffffffffffffffffffffffffffffffffffffffffc803d016004833e81513d67ffffffffffffffff8160248401118184111715615acb57505050505090565b8285019150815181811115615ae35750505050505090565b843d8701016020828501011115615afd5750505050505090565b615b0c60208286010187614cff565b509095945050505050565b80820180821115610824576108246156de565b81810381811115610824576108246156de565b608081526000615b506080830187614b3f565b6001600160a01b039590951660208301525063ffffffff92909216604083015267ffffffffffffffff16606090910152919050565b7fff000000000000000000000000000000000000000000000000000000000000008460f81b16815260008351615bc2816001850160208801614b1b565b835190830190615bd9816001840160208801614b1b565b0160010195945050505050565b60006001600160a01b03808816835280871660208401525084604083015283606083015260a06080830152615c1e60a0830184614b3f565b97965050505050505056fea26469706673582212204b0cfaa1d2ddb80f58bc46023317ff42e4df954009cca49ee9635522d109c02464736f6c63430008110033",
  "devdoc": {
    "kind": "dev",
    "methods": {
      "allFusesBurned(bytes32,uint32)": {
        "params": {
          "fuseMask": "The fuses you want to check",
          "node": "Namehash of the name"
        },
        "returns": {
          "_0": "Boolean of whether or not all the selected fuses are burned"
        }
      },
      "balanceOf(address,uint256)": {
        "details": "See {IERC1155-balanceOf}. Requirements: - `account` cannot be the zero address."
      },
      "balanceOfBatch(address[],uint256[])": {
        "details": "See {IERC1155-balanceOfBatch}. Requirements: - `accounts` and `ids` must have the same length."
      },
      "isApprovedForAll(address,address)": {
        "details": "See {IERC1155-isApprovedForAll}."
      },
      "isTokenOwnerOrApproved(bytes32,address)": {
        "params": {
          "addr": "which address to check permissions for",
          "node": "namehash of the name to check"
        },
        "returns": {
          "_0": "whether or not is owner or approved"
        }
      },
      "isWrapped(bytes32)": {
        "details": "Both of these checks need to be true to be considered wrapped if checked without this contract",
        "params": {
          "node": "Namehash of the name"
        },
        "returns": {
          "_0": "Boolean of whether or not the name is wrapped"
        }
      },
      "owner()": {
        "details": "Returns the address of the current owner."
      },
      "recoverFunds(address,address,uint256)": {
        "details": "The contract is Ownable and only the owner can call the recover function.",
        "params": {
          "_amount": "The amount of tokens to recover.",
          "_to": "The address to send the tokens to.",
          "_token": "The address of the ERC20 token to recover"
        }
      },
      "registerAndWrapETH2LD(string,address,uint256,address,uint32,uint64)": {
        "details": "Registers a new .eth second-level domain and wraps it.      Only callable by authorised controllers.",
        "params": {
          "duration": "The duration, in seconds, to register the name for.",
          "expiry": "When the fuses will expire",
          "fuses": "Initial fuses to set",
          "label": "The label to register (Eg, 'foo' for 'foo.eth').",
          "resolver": "The resolver address to set on the ENS registry (optional).",
          "wrappedOwner": "The owner of the wrapped name."
        },
        "returns": {
          "registrarExpiry": "The expiry date of the new name on the .eth registrar, in seconds since the Unix epoch."
        }
      },
      "renew(uint256,uint256,uint32,uint64)": {
        "details": "Only callable by authorised controllers.",
        "params": {
          "duration": "The number of seconds to renew the name for.",
          "tokenId": "The hash of the label to register (eg, `keccak256('foo')`, for 'foo.eth')."
        },
        "returns": {
          "expires": "The expiry date of the name on the .eth registrar, in seconds since the Unix epoch."
        }
      },
      "renounceOwnership()": {
        "details": "Leaves the contract without owner. It will not be possible to call `onlyOwner` functions anymore. Can only be called by the current owner. NOTE: Renouncing ownership will leave the contract without an owner, thereby removing any functionality that is only available to the owner."
      },
      "safeBatchTransferFrom(address,address,uint256[],uint256[],bytes)": {
        "details": "See {IERC1155-safeBatchTransferFrom}."
      },
      "safeTransferFrom(address,address,uint256,uint256,bytes)": {
        "details": "See {IERC1155-safeTransferFrom}."
      },
      "setApprovalForAll(address,bool)": {
        "details": "See {IERC1155-setApprovalForAll}."
      },
      "setChildFuses(bytes32,bytes32,uint32,uint64)": {
        "params": {
          "expiry": "When the fuses will expire",
          "fuses": "Fuses to burn",
          "labelhash": "Labelhash of the name, e.g. vitalik.xyz would be keccak256('vitalik')",
          "parentNode": "Parent namehash of the name e.g. vitalik.xyz would be namehash('xyz')"
        }
      },
      "setFuses(bytes32,uint32)": {
        "params": {
          "fuses": "Fuses to burn (cannot burn PARENT_CANNOT_CONTROL)",
          "node": "Namehash of the name"
        },
        "returns": {
          "_0": "New fuses"
        }
      },
      "setMetadataService(address)": {
        "params": {
          "_metadataService": "The new metadata service"
        }
      },
      "setRecord(bytes32,address,address,uint64)": {
        "params": {
          "node": "Namehash of the name to set a record for",
          "owner": "New owner in the registry",
          "resolver": "Resolver contract",
          "ttl": "Time to live in the registry"
        }
      },
      "setResolver(bytes32,address)": {
        "params": {
          "node": "namehash of the name",
          "resolver": "the resolver contract"
        }
      },
      "setSubnodeOwner(bytes32,string,address,uint32,uint64)": {
        "params": {
          "expiry": "When the fuses will expire",
          "fuses": "Initial fuses for the wrapped subdomain",
          "label": "Label of the subdomain as a string",
          "owner": "New owner in the wrapper",
          "parentNode": "Parent namehash of the subdomain"
        },
        "returns": {
          "node": "Namehash of the subdomain"
        }
      },
      "setSubnodeRecord(bytes32,string,address,address,uint64,uint32,uint64)": {
        "params": {
          "expiry": "expiry date for the domain",
          "fuses": "initial fuses for the wrapped subdomain",
          "label": "label of the subdomain as a string",
          "owner": "new owner in the wrapper",
          "parentNode": "parent namehash of the subdomain",
          "resolver": "resolver contract in the registry",
          "ttl": "ttl in the regsitry"
        },
        "returns": {
          "node": "Namehash of the subdomain"
        }
      },
      "setTTL(bytes32,uint64)": {
        "params": {
          "node": "Namehash of the name",
          "ttl": "TTL in the registry"
        }
      },
      "setUpgradeContract(address)": {
        "details": "The default value of upgradeContract is the 0 address. Use the 0 address at any time to make the contract not upgradable.",
        "params": {
          "_upgradeAddress": "address of an upgraded contract"
        }
      },
      "transferOwnership(address)": {
        "details": "Transfers ownership of the contract to a new account (`newOwner`). Can only be called by the current owner."
      },
      "unwrap(bytes32,bytes32,address)": {
        "details": "Can be called by the owner in the wrapper or an authorised caller in the wrapper",
        "params": {
          "controller": "Sets the owner in the registry to this address",
          "labelhash": "Labelhash of the name, e.g. vitalik.xyz would be keccak256('vitalik')",
          "parentNode": "Parent namehash of the name e.g. vitalik.xyz would be namehash('xyz')"
        }
      },
      "unwrapETH2LD(bytes32,address,address)": {
        "details": "Can be called by the owner in the wrapper or an authorised caller in the wrapper",
        "params": {
          "controller": "Sets the owner in the registry to this address",
          "labelhash": "Labelhash of the .eth domain",
          "registrant": "Sets the owner in the .eth registrar to this address"
        }
      },
      "upgrade(bytes32,string,address,address)": {
        "details": "Can be called by the owner or an authorised caller Requires upgraded Namewrapper to permit old Namewrapper to call `setSubnodeRecord` for all names",
        "params": {
          "label": "Label as a string of the name to upgrade",
          "parentNode": "Namehash of the parent name",
          "resolver": "Resolver contract for this name",
          "wrappedOwner": "Owner of the name in this contract"
        }
      },
      "upgradeETH2LD(string,address,address)": {
        "details": "Can be called by the owner of the name in this contract",
        "params": {
          "label": "Label as a string of the .eth name to upgrade",
          "wrappedOwner": "The owner of the wrapped name"
        }
      },
      "uri(uint256)": {
        "params": {
          "tokenId": "The id of the token"
        },
        "returns": {
          "_0": "string uri of the metadata service"
        }
      },
      "wrap(bytes,address,address)": {
        "details": "Can be called by the owner in the registry or an authorised caller in the registry",
        "params": {
          "name": "The name to wrap, in DNS format",
          "resolver": "Resolver contract",
          "wrappedOwner": "Owner of the name in this contract"
        }
      },
      "wrapETH2LD(string,address,uint32,uint64,address)": {
        "details": "Can be called by the owner of the name on the .eth registrar or an authorised caller on the registrar",
        "params": {
          "expiry": "When the fuses will expire",
          "fuses": "Initial fuses to set",
          "label": "Label as a string of the .eth domain to wrap",
          "resolver": "Resolver contract address",
          "wrappedOwner": "Owner of the name in this contract"
        },
        "returns": {
          "_0": "Normalised expiry of when the fuses expire"
        }
      }
    },
    "version": 1
  },
  "userdoc": {
    "kind": "user",
    "methods": {
      "allFusesBurned(bytes32,uint32)": {
        "notice": "Checks all Fuses in the mask are burned for the node"
      },
      "isTokenOwnerOrApproved(bytes32,address)": {
        "notice": "Checks if owner or approved by owner"
      },
      "isWrapped(bytes32)": {
        "notice": "Checks if a name is wrapped or not"
      },
      "recoverFunds(address,address,uint256)": {
        "notice": "Recover ERC20 tokens sent to the contract by mistake."
      },
      "renew(uint256,uint256,uint32,uint64)": {
        "notice": "Renews a .eth second-level domain."
      },
      "setChildFuses(bytes32,bytes32,uint32,uint64)": {
        "notice": "Sets fuses of a name that you own the parent of. Can also be called by the owner of a .eth name"
      },
      "setFuses(bytes32,uint32)": {
        "notice": "Sets fuses of a name"
      },
      "setMetadataService(address)": {
        "notice": "Set the metadata service. Only the owner can do this"
      },
      "setRecord(bytes32,address,address,uint64)": {
        "notice": "Sets records for the name in the ENS Registry"
      },
      "setResolver(bytes32,address)": {
        "notice": "Sets resolver contract in the registry"
      },
      "setSubnodeOwner(bytes32,string,address,uint32,uint64)": {
        "notice": "Sets the subdomain owner in the registry and then wraps the subdomain"
      },
      "setSubnodeRecord(bytes32,string,address,address,uint64,uint32,uint64)": {
        "notice": "Sets the subdomain owner in the registry with records and then wraps the subdomain"
      },
      "setTTL(bytes32,uint64)": {
        "notice": "Sets TTL in the registry"
      },
      "setUpgradeContract(address)": {
        "notice": "Set the address of the upgradeContract of the contract. only admin can do this"
      },
      "unwrap(bytes32,bytes32,address)": {
        "notice": "Unwraps a non .eth domain, of any kind. Could be a DNSSEC name vitalik.xyz or a subdomain"
      },
      "unwrapETH2LD(bytes32,address,address)": {
        "notice": "Unwraps a .eth domain. e.g. vitalik.eth"
      },
      "upgrade(bytes32,string,address,address)": {
        "notice": "Upgrades a non .eth domain of any kind. Could be a DNSSEC name vitalik.xyz or a subdomain"
      },
      "upgradeETH2LD(string,address,address)": {
        "notice": "Upgrades a .eth wrapped domain by calling the wrapETH2LD function of the upgradeContract     and burning the token of this contract"
      },
      "uri(uint256)": {
        "notice": "Get the metadata uri"
      },
      "wrap(bytes,address,address)": {
        "notice": "Wraps a non .eth domain, of any kind. Could be a DNSSEC name vitalik.xyz or a subdomain"
      },
      "wrapETH2LD(string,address,uint32,uint64,address)": {
        "notice": "Wraps a .eth domain, creating a new token and sending the original ERC721 token to this contract"
      }
    },
    "version": 1
  },
  "storageLayout": {
    "storage": [
      {
        "astId": 1283,
        "contract": "contracts/wrapper/NameWrapper.sol:NameWrapper",
        "label": "_owner",
        "offset": 0,
        "slot": "0",
        "type": "t_address"
      },
      {
        "astId": 18560,
        "contract": "contracts/wrapper/NameWrapper.sol:NameWrapper",
        "label": "_tokens",
        "offset": 0,
        "slot": "1",
        "type": "t_mapping(t_uint256,t_uint256)"
      },
      {
        "astId": 18566,
        "contract": "contracts/wrapper/NameWrapper.sol:NameWrapper",
        "label": "_operatorApprovals",
        "offset": 0,
        "slot": "2",
        "type": "t_mapping(t_address,t_mapping(t_address,t_bool))"
      },
      {
        "astId": 18496,
        "contract": "contracts/wrapper/NameWrapper.sol:NameWrapper",
        "label": "controllers",
        "offset": 0,
        "slot": "3",
        "type": "t_mapping(t_address,t_bool)"
      },
      {
        "astId": 19830,
        "contract": "contracts/wrapper/NameWrapper.sol:NameWrapper",
        "label": "metadataService",
        "offset": 0,
        "slot": "4",
        "type": "t_contract(IMetadataService)19422"
      },
      {
        "astId": 19835,
        "contract": "contracts/wrapper/NameWrapper.sol:NameWrapper",
        "label": "names",
        "offset": 0,
        "slot": "5",
        "type": "t_mapping(t_bytes32,t_bytes_storage)"
      },
      {
        "astId": 19844,
        "contract": "contracts/wrapper/NameWrapper.sol:NameWrapper",
        "label": "upgradeContract",
        "offset": 0,
        "slot": "6",
        "type": "t_contract(INameWrapperUpgrade)19733"
      }
    ],
    "types": {
      "t_address": {
        "encoding": "inplace",
        "label": "address",
        "numberOfBytes": "20"
      },
      "t_bool": {
        "encoding": "inplace",
        "label": "bool",
        "numberOfBytes": "1"
      },
      "t_bytes32": {
        "encoding": "inplace",
        "label": "bytes32",
        "numberOfBytes": "32"
      },
      "t_bytes_storage": {
        "encoding": "bytes",
        "label": "bytes",
        "numberOfBytes": "32"
      },
      "t_contract(IMetadataService)19422": {
        "encoding": "inplace",
        "label": "contract IMetadataService",
        "numberOfBytes": "20"
      },
      "t_contract(INameWrapperUpgrade)19733": {
        "encoding": "inplace",
        "label": "contract INameWrapperUpgrade",
        "numberOfBytes": "20"
      },
      "t_mapping(t_address,t_bool)": {
        "encoding": "mapping",
        "key": "t_address",
        "label": "mapping(address => bool)",
        "numberOfBytes": "32",
        "value": "t_bool"
      },
      "t_mapping(t_address,t_mapping(t_address,t_bool))": {
        "encoding": "mapping",
        "key": "t_address",
        "label": "mapping(address => mapping(address => bool))",
        "numberOfBytes": "32",
        "value": "t_mapping(t_address,t_bool)"
      },
      "t_mapping(t_bytes32,t_bytes_storage)": {
        "encoding": "mapping",
        "key": "t_bytes32",
        "label": "mapping(bytes32 => bytes)",
        "numberOfBytes": "32",
        "value": "t_bytes_storage"
      },
      "t_mapping(t_uint256,t_uint256)": {
        "encoding": "mapping",
        "key": "t_uint256",
        "label": "mapping(uint256 => uint256)",
        "numberOfBytes": "32",
        "value": "t_uint256"
      },
      "t_uint256": {
        "encoding": "inplace",
        "label": "uint256",
        "numberOfBytes": "32"
      }
    }
  }
}