{
  "address": "0xb5D38cBac62702AeB8a07F97Dd9e7bD48f75a3e7",
  "abi": [
    {
      "inputs": [
        {
          "internalType": "uint256[]",
          "name": "_rentPrices",
          "type": "uint256[]"
        }
      ],
      "stateMutability": "nonpayable",
      "type": "constructor"
    },
    {
      "anonymous": false,
      "inputs": [
        {
          "indexed": false,
          "internalType": "uint256[]",
          "name": "prices",
          "type": "uint256[]"
        }
      ],
      "name": "RentPriceChanged",
      "type": "event"
    },
    {
      "inputs": [
        {
          "internalType": "string",
          "name": "name",
          "type": "string"
        },
        {
          "internalType": "uint256",
          "name": "expires",
          "type": "uint256"
        },
        {
          "internalType": "uint256",
          "name": "duration",
          "type": "uint256"
        }
      ],
      "name": "premium",
      "outputs": [
        {
          "internalType": "uint256",
          "name": "",
          "type": "uint256"
        }
      ],
      "stateMutability": "view",
      "type": "function"
    },
    {
      "inputs": [
        {
          "internalType": "string",
          "name": "name",
          "type": "string"
        },
        {
          "internalType": "uint256",
          "name": "expires",
          "type": "uint256"
        },
        {
          "internalType": "uint256",
          "name": "duration",
          "type": "uint256"
        }
      ],
      "name": "price",
      "outputs": [
        {
          "components": [
            {
              "internalType": "uint256",
              "name": "base",
              "type": "uint256"
            },
            {
              "internalType": "uint256",
              "name": "premium",
              "type": "uint256"
            }
          ],
          "internalType": "struct IPriceOracle.Price",
          "name": "",
          "type": "tuple"
        }
      ],
      "stateMutability": "view",
      "type": "function"
    },
    {
      "inputs": [],
      "name": "price1Letter",
      "outputs": [
        {
          "internalType": "uint256",
          "name": "",
          "type": "uint256"
        }
      ],
      "stateMutability": "view",
      "type": "function"
    },
    {
      "inputs": [],
      "name": "price2Letter",
      "outputs": [
        {
          "internalType": "uint256",
          "name": "",
          "type": "uint256"
        }
      ],
      "stateMutability": "view",
      "type": "function"
    },
    {
      "inputs": [],
      "name": "price3Letter",
      "outputs": [
        {
          "internalType": "uint256",
          "name": "",
          "type": "uint256"
        }
      ],
      "stateMutability": "view",
      "type": "function"
    },
    {
      "inputs": [],
      "name": "price4Letter",
      "outputs": [
        {
          "internalType": "uint256",
          "name": "",
          "type": "uint256"
        }
      ],
      "stateMutability": "view",
      "type": "function"
    },
    {
      "inputs": [],
      "name": "price5Letter",
      "outputs": [
        {
          "internalType": "uint256",
          "name": "",
          "type": "uint256"
        }
      ],
      "stateMutability": "view",
      "type": "function"
    },
    {
      "inputs": [
        {
          "internalType": "bytes4",
          "name": "interfaceID",
          "type": "bytes4"
        }
      ],
      "name": "supportsInterface",
      "outputs": [
        {
          "internalType": "bool",
          "name": "",
          "type": "bool"
        }
      ],
      "stateMutability": "view",
      "type": "function"
    }
  ],
  "transactionHash": "0x9b95f1d302264d6fee53fb7463ecb3002708f8e0d55df32d6473e8b52e3ebe13",
  "args": [
    [
      50000000,
      10000000,
      5000000,
      3000000,
      1000000
    ]
  ],
  "numDeployments": 1,
  "solcInputHash": "409906295ccba36fe97d70bdbb6a92f5",
  "bytecode": "0x6101206040523480156200001257600080fd5b5060405162000afb38038062000afb83398101604081905262000035916200010c565b806000815181106200004b576200004b620001d5565b60200260200101516080818152505080600181518110620000705762000070620001d5565b602002602001015160a0818152505080600281518110620000955762000095620001d5565b602002602001015160c0818152505080600381518110620000ba57620000ba620001d5565b602002602001015160e0818152505080600481518110620000df57620000df620001d5565b6020026020010151610100818152505050620001eb565b634e487b7160e01b600052604160045260246000fd5b600060208083850312156200012057600080fd5b82516001600160401b03808211156200013857600080fd5b818501915085601f8301126200014d57600080fd5b815181811115620001625762000162620000f6565b8060051b604051601f19603f830116810181811085821117156200018a576200018a620000f6565b604052918252848201925083810185019188831115620001a957600080fd5b938501935b82851015620001c957845184529385019392850192620001ae565b98975050505050505050565b634e487b7160e01b600052603260045260246000fd5b60805160a05160c05160e051610100516108a9620002526000396000818161011d01526102cc0152600081816101a50152610314015260008181610144015261034b01526000818161017e015261038201526000818160ba01526103b101526108a96000f3fe608060405234801561001057600080fd5b50600436106100885760003560e01c8063a200e1531161005b578063a200e1531461013f578063a34e359614610166578063cd5d2c7414610179578063d820ed42146101a057600080fd5b806301ffc9a71461008d5780632c0fd74c146100b557806350e9a715146100ea57806359b6b86c14610118575b600080fd5b6100a061009b3660046106b0565b6101c7565b60405190151581526020015b60405180910390f35b6100dc7f000000000000000000000000000000000000000000000000000000000000000081565b6040519081526020016100ac565b6100fd6100f83660046106f9565b610260565b604080518251815260209283015192810192909252016100ac565b6100dc7f000000000000000000000000000000000000000000000000000000000000000081565b6100dc7f000000000000000000000000000000000000000000000000000000000000000081565b6100dc6101743660046106f9565b61044f565b6100dc7f000000000000000000000000000000000000000000000000000000000000000081565b6100dc7f000000000000000000000000000000000000000000000000000000000000000081565b60007fffffffff0000000000000000000000000000000000000000000000000000000082167f01ffc9a700000000000000000000000000000000000000000000000000000000148061025a57507fffffffff0000000000000000000000000000000000000000000000000000000082167f50e9a71500000000000000000000000000000000000000000000000000000000145b92915050565b604080518082019091526000808252602082015260006102b586868080601f0160208091040260200160405190810160405280939291908181526020018383808284376000920191909152506104a092505050565b9050600060058210610301576301e133806102f0857f00000000000000000000000000000000000000000000000000000000000000006107a7565b6102fa91906107be565b90506103e2565b81600403610338576301e133806102f0857f00000000000000000000000000000000000000000000000000000000000000006107a7565b8160030361036f576301e133806102f0857f00000000000000000000000000000000000000000000000000000000000000006107a7565b816002036103a6576301e133806102f0857f00000000000000000000000000000000000000000000000000000000000000006107a7565b6301e133806103d5857f00000000000000000000000000000000000000000000000000000000000000006107a7565b6103df91906107be565b90505b60405180604001604052806103f48390565b815260200161044261043f8a8a8080601f0160208091040260200160405190810160405280939291908181526020018383808284376000920191909152508c92508b91506106a79050565b90565b9052979650505050505050565b600061049761043f86868080601f0160208091040260200160405190810160405280939291908181526020018383808284376000920191909152508892508791506106a79050565b95945050505050565b8051600090819081905b8082101561069e5760008583815181106104c6576104c66107f9565b01602001517fff000000000000000000000000000000000000000000000000000000000000001690507f800000000000000000000000000000000000000000000000000000000000000081101561052957610522600184610828565b925061068b565b7fe0000000000000000000000000000000000000000000000000000000000000007fff000000000000000000000000000000000000000000000000000000000000008216101561057e57610522600284610828565b7ff0000000000000000000000000000000000000000000000000000000000000007fff00000000000000000000000000000000000000000000000000000000000000821610156105d357610522600384610828565b7ff8000000000000000000000000000000000000000000000000000000000000007fff000000000000000000000000000000000000000000000000000000000000008216101561062857610522600484610828565b7ffc000000000000000000000000000000000000000000000000000000000000007fff000000000000000000000000000000000000000000000000000000000000008216101561067d57610522600584610828565b610688600684610828565b92505b50826106968161083b565b9350506104aa565b50909392505050565b60009392505050565b6000602082840312156106c257600080fd5b81357fffffffff00000000000000000000000000000000000000000000000000000000811681146106f257600080fd5b9392505050565b6000806000806060858703121561070f57600080fd5b843567ffffffffffffffff8082111561072757600080fd5b818701915087601f83011261073b57600080fd5b81358181111561074a57600080fd5b88602082850101111561075c57600080fd5b6020928301999098509187013596604001359550909350505050565b7f4e487b7100000000000000000000000000000000000000000000000000000000600052601160045260246000fd5b808202811582820484141761025a5761025a610778565b6000826107f4577f4e487b7100000000000000000000000000000000000000000000000000000000600052601260045260246000fd5b500490565b7f4e487b7100000000000000000000000000000000000000000000000000000000600052603260045260246000fd5b8082018082111561025a5761025a610778565b60007fffffffffffffffffffffffffffffffffffffffffffffffffffffffffffffffff820361086c5761086c610778565b506001019056fea26469706673582212207814a7bc761bdfcf358f24ed1683487ea5ceafbbf5d3fe843ed86e7af5efd2c964736f6c63430008110033",
  "devdoc": {
    "kind": "dev",
    "methods": {
      "premium(string,uint256,uint256)": {
        "details": "Returns the pricing premium in wei."
      },
      "price(string,uint256,uint256)": {
        "details": "Returns the price to register or renew a name.",
        "params": {
          "duration": "How long the name is being registered or extended for, in seconds.",
          "expires": "When the name presently expires (0 if this is a new registration).",
          "name": "The name being registered or renewed."
        },
        "returns": {
          "_0": "base premium tuple of base price + premium price"
        }
      }
    },
    "version": 1
  },
  "userdoc": {
    "kind": "user",
    "methods": {},
    "version": 1
  },
  "storageLayout": {
    "storage": [],
    "types": null
  }
}